{
  "contractName": "VC",
  "abi": [
    {
      "inputs": [
        {
          "internalType": "address",
          "name": "",
          "type": "address"
        }
      ],
      "name": "checkUsers",
      "outputs": [
        {
          "internalType": "bool",
          "name": "",
          "type": "bool"
        }
      ],
      "stateMutability": "view",
      "type": "function",
      "constant": true
    },
    {
      "inputs": [
        {
          "internalType": "address",
          "name": "",
          "type": "address"
        }
      ],
      "name": "users",
      "outputs": [
        {
          "internalType": "string",
          "name": "name",
          "type": "string"
        },
        {
          "internalType": "string",
          "name": "age",
          "type": "string"
        },
        {
          "internalType": "string",
          "name": "dateOfBirth",
          "type": "string"
        },
        {
          "internalType": "uint256",
          "name": "numOfVaccine",
          "type": "uint256"
        }
      ],
      "stateMutability": "view",
      "type": "function",
      "constant": true
    },
    {
      "inputs": [
        {
          "internalType": "string",
          "name": "name",
          "type": "string"
        },
        {
          "internalType": "string",
          "name": "age",
          "type": "string"
        },
        {
          "internalType": "string",
          "name": "dateOfBirth",
          "type": "string"
        }
      ],
      "name": "createUser",
      "outputs": [],
      "stateMutability": "nonpayable",
      "type": "function"
    },
    {
      "inputs": [
        {
          "internalType": "string",
          "name": "nameVaccine",
          "type": "string"
        },
        {
          "internalType": "string",
          "name": "date",
          "type": "string"
        },
        {
          "internalType": "string",
          "name": "vaccinationFacility",
          "type": "string"
        }
      ],
      "name": "addVaccine",
      "outputs": [],
      "stateMutability": "nonpayable",
      "type": "function"
    },
    {
      "inputs": [],
      "name": "readVaccine",
      "outputs": [
        {
          "components": [
            {
              "internalType": "string",
              "name": "nameVaccine",
              "type": "string"
            },
            {
              "internalType": "string",
              "name": "date",
              "type": "string"
            },
            {
              "internalType": "string",
              "name": "vaccinationFacility",
              "type": "string"
            }
          ],
          "internalType": "struct VC.Vaccine[]",
          "name": "",
          "type": "tuple[]"
        }
      ],
      "stateMutability": "view",
      "type": "function",
      "constant": true
    },
    {
      "inputs": [
        {
          "internalType": "address",
          "name": "add",
          "type": "address"
        }
      ],
      "name": "getUser",
      "outputs": [
        {
          "internalType": "string",
          "name": "",
          "type": "string"
        },
        {
          "internalType": "string",
          "name": "",
          "type": "string"
        },
        {
          "internalType": "string",
          "name": "",
          "type": "string"
        }
      ],
      "stateMutability": "view",
      "type": "function",
      "constant": true
    }
  ],
  "bytecode": "0x608060405234801561001057600080fd5b5061138e806100206000396000f3fe608060405234801561001057600080fd5b50600436106100625760003560e01c80634a0326d51461006757806359ae069b1461008557806366c8137c146100a15780636f77926b146100d15780638a5fe16814610103578063a87430ba1461011f575b600080fd5b61006f610152565b60405161007c9190610e74565b60405180910390f35b61009f600480360381019061009a9190610fdf565b6104c7565b005b6100bb60048036038101906100b691906110e4565b6105c1565b6040516100c8919061112c565b60405180910390f35b6100eb60048036038101906100e691906110e4565b6105e1565b6040516100fa93929190611191565b60405180910390f35b61011d60048036038101906101189190610fdf565b6108e6565b005b610139600480360381019061013491906110e4565b610a2f565b60405161014994939291906111f6565b60405180910390f35b60606000339050600160008273ffffffffffffffffffffffffffffffffffffffff1673ffffffffffffffffffffffffffffffffffffffff16815260200190815260200160002060009054906101000a900460ff161561046b5760008060008373ffffffffffffffffffffffffffffffffffffffff1673ffffffffffffffffffffffffffffffffffffffff16815260200190815260200160002090506000816003015467ffffffffffffffff81111561020d5761020c610eb4565b5b60405190808252806020026020018201604052801561024657816020015b610233610bf7565b81526020019060019003908161022b5790505b50905060005b826003015481101561045f578260040160008281526020019081526020016000206040518060600160405290816000820180546102889061127f565b80601f01602080910402602001604051908101604052809291908181526020018280546102b49061127f565b80156103015780601f106102d657610100808354040283529160200191610301565b820191906000526020600020905b8154815290600101906020018083116102e457829003601f168201915b5050505050815260200160018201805461031a9061127f565b80601f01602080910402602001604051908101604052809291908181526020018280546103469061127f565b80156103935780601f1061036857610100808354040283529160200191610393565b820191906000526020600020905b81548152906001019060200180831161037657829003601f168201915b505050505081526020016002820180546103ac9061127f565b80601f01602080910402602001604051908101604052809291908181526020018280546103d89061127f565b80156104255780601f106103fa57610100808354040283529160200191610425565b820191906000526020600020905b81548152906001019060200180831161040857829003601f168201915b505050505081525050828281518110610441576104406112b1565b5b602002602001018190525080806104579061130f565b91505061024c565b508093505050506104c4565b600167ffffffffffffffff81111561048657610485610eb4565b5b6040519080825280602002602001820160405280156104bf57816020015b6104ac610bf7565b8152602001906001900390816104a45790505b509150505b90565b600033905060018060008373ffffffffffffffffffffffffffffffffffffffff1673ffffffffffffffffffffffffffffffffffffffff16815260200190815260200160002060006101000a81548160ff02191690831515021790555060008060008373ffffffffffffffffffffffffffffffffffffffff1673ffffffffffffffffffffffffffffffffffffffff16815260200190815260200160002090508481600001908051906020019061057d929190610c18565b5083816001019080519060200190610596929190610c18565b50828160020190805190602001906105af929190610c18565b50600081600301819055505050505050565b60016020528060005260406000206000915054906101000a900460ff1681565b6060806060600160008573ffffffffffffffffffffffffffffffffffffffff1673ffffffffffffffffffffffffffffffffffffffff16815260200190815260200160002060009054906101000a900460ff16156108365760008060008673ffffffffffffffffffffffffffffffffffffffff1673ffffffffffffffffffffffffffffffffffffffff16815260200190815260200160002090508060000181600101826002018280546106929061127f565b80601f01602080910402602001604051908101604052809291908181526020018280546106be9061127f565b801561070b5780601f106106e05761010080835404028352916020019161070b565b820191906000526020600020905b8154815290600101906020018083116106ee57829003601f168201915b5050505050925081805461071e9061127f565b80601f016020809104026020016040519081016040528092919081815260200182805461074a9061127f565b80156107975780601f1061076c57610100808354040283529160200191610797565b820191906000526020600020905b81548152906001019060200180831161077a57829003601f168201915b505050505091508080546107aa9061127f565b80601f01602080910402602001604051908101604052809291908181526020018280546107d69061127f565b80156108235780601f106107f857610100808354040283529160200191610823565b820191906000526020600020905b81548152906001019060200180831161080657829003601f168201915b50505050509050935093509350506108df565b6040518060400160405280600481526020017f6e756c6c000000000000000000000000000000000000000000000000000000008152506040518060400160405280600481526020017f6e756c6c000000000000000000000000000000000000000000000000000000008152506040518060400160405280600481526020017f6e756c6c000000000000000000000000000000000000000000000000000000008152509250925092505b9193909250565b6000339050600160008273ffffffffffffffffffffffffffffffffffffffff1673ffffffffffffffffffffffffffffffffffffffff16815260200190815260200160002060009054906101000a900460ff1615610a295760008060008373ffffffffffffffffffffffffffffffffffffffff1673ffffffffffffffffffffffffffffffffffffffff16815260200190815260200160002090506040518060600160405280868152602001858152602001848152508160040160008360030154815260200190815260200160002060008201518160000190805190602001906109cf929190610c18565b5060208201518160010190805190602001906109ec929190610c18565b506040820151816002019080519060200190610a09929190610c18565b50905050806003016000815480929190610a229061130f565b9190505550505b50505050565b6000602052806000526040600020600091509050806000018054610a529061127f565b80601f0160208091040260200160405190810160405280929190818152602001828054610a7e9061127f565b8015610acb5780601f10610aa057610100808354040283529160200191610acb565b820191906000526020600020905b815481529060010190602001808311610aae57829003601f168201915b505050505090806001018054610ae09061127f565b80601f0160208091040260200160405190810160405280929190818152602001828054610b0c9061127f565b8015610b595780601f10610b2e57610100808354040283529160200191610b59565b820191906000526020600020905b815481529060010190602001808311610b3c57829003601f168201915b505050505090806002018054610b6e9061127f565b80601f0160208091040260200160405190810160405280929190818152602001828054610b9a9061127f565b8015610be75780601f10610bbc57610100808354040283529160200191610be7565b820191906000526020600020905b815481529060010190602001808311610bca57829003601f168201915b5050505050908060030154905084565b60405180606001604052806060815260200160608152602001606081525090565b828054610c249061127f565b90600052602060002090601f016020900481019282610c465760008555610c8d565b82601f10610c5f57805160ff1916838001178555610c8d565b82800160010185558215610c8d579182015b82811115610c8c578251825591602001919060010190610c71565b5b509050610c9a9190610c9e565b5090565b5b80821115610cb7576000816000905550600101610c9f565b5090565b600081519050919050565b600082825260208201905092915050565b6000819050602082019050919050565b600081519050919050565b600082825260208201905092915050565b60005b83811015610d21578082015181840152602081019050610d06565b83811115610d30576000848401525b50505050565b6000601f19601f8301169050919050565b6000610d5282610ce7565b610d5c8185610cf2565b9350610d6c818560208601610d03565b610d7581610d36565b840191505092915050565b60006060830160008301518482036000860152610d9d8282610d47565b91505060208301518482036020860152610db78282610d47565b91505060408301518482036040860152610dd18282610d47565b9150508091505092915050565b6000610dea8383610d80565b905092915050565b6000602082019050919050565b6000610e0a82610cbb565b610e148185610cc6565b935083602082028501610e2685610cd7565b8060005b85811015610e625784840389528151610e438582610dde565b9450610e4e83610df2565b925060208a01995050600181019050610e2a565b50829750879550505050505092915050565b60006020820190508181036000830152610e8e8184610dff565b905092915050565b6000604051905090565b600080fd5b600080fd5b600080fd5b600080fd5b7f4e487b7100000000000000000000000000000000000000000000000000000000600052604160045260246000fd5b610eec82610d36565b810181811067ffffffffffffffff82111715610f0b57610f0a610eb4565b5b80604052505050565b6000610f1e610e96565b9050610f2a8282610ee3565b919050565b600067ffffffffffffffff821115610f4a57610f49610eb4565b5b610f5382610d36565b9050602081019050919050565b82818337600083830152505050565b6000610f82610f7d84610f2f565b610f14565b905082815260208101848484011115610f9e57610f9d610eaf565b5b610fa9848285610f60565b509392505050565b600082601f830112610fc657610fc5610eaa565b5b8135610fd6848260208601610f6f565b91505092915050565b600080600060608486031215610ff857610ff7610ea0565b5b600084013567ffffffffffffffff81111561101657611015610ea5565b5b61102286828701610fb1565b935050602084013567ffffffffffffffff81111561104357611042610ea5565b5b61104f86828701610fb1565b925050604084013567ffffffffffffffff8111156110705761106f610ea5565b5b61107c86828701610fb1565b9150509250925092565b600073ffffffffffffffffffffffffffffffffffffffff82169050919050565b60006110b182611086565b9050919050565b6110c1816110a6565b81146110cc57600080fd5b50565b6000813590506110de816110b8565b92915050565b6000602082840312156110fa576110f9610ea0565b5b6000611108848285016110cf565b91505092915050565b60008115159050919050565b61112681611111565b82525050565b6000602082019050611141600083018461111d565b92915050565b600082825260208201905092915050565b600061116382610ce7565b61116d8185611147565b935061117d818560208601610d03565b61118681610d36565b840191505092915050565b600060608201905081810360008301526111ab8186611158565b905081810360208301526111bf8185611158565b905081810360408301526111d38184611158565b9050949350505050565b6000819050919050565b6111f0816111dd565b82525050565b600060808201905081810360008301526112108187611158565b905081810360208301526112248186611158565b905081810360408301526112388185611158565b905061124760608301846111e7565b95945050505050565b7f4e487b7100000000000000000000000000000000000000000000000000000000600052602260045260246000fd5b6000600282049050600182168061129757607f821691505b602082108114156112ab576112aa611250565b5b50919050565b7f4e487b7100000000000000000000000000000000000000000000000000000000600052603260045260246000fd5b7f4e487b7100000000000000000000000000000000000000000000000000000000600052601160045260246000fd5b600061131a826111dd565b91507fffffffffffffffffffffffffffffffffffffffffffffffffffffffffffffffff82141561134d5761134c6112e0565b5b60018201905091905056fea26469706673582212208b0ddded80adbbfa98ae858d19071c5686230cbc1c7fcc5601f99dd58684140564736f6c634300080b0033",
  "immutableReferences": {},
  "source": "// SPDX-License-Identifier: MIT\r\npragma solidity >=0.4.22 <0.9.0;\r\n\r\ncontract VC {\r\n    struct Vaccine {\r\n        string nameVaccine;\r\n        string date;\r\n        string vaccinationFacility;\r\n    }\r\n\r\n    struct User {\r\n        string name;\r\n        string age;\r\n        string dateOfBirth;\r\n        uint256 numOfVaccine;\r\n        mapping(uint256 => Vaccine) vaccines;\r\n    }\r\n\r\n    mapping(address => User) public users;\r\n    mapping(address => bool) public checkUsers;\r\n\r\n    function createUser(\r\n        string memory name,\r\n        string memory age,\r\n        string memory dateOfBirth\r\n    ) external {\r\n        address userAddress = msg.sender;\r\n        checkUsers[userAddress] = true;\r\n        User storage u = users[userAddress];\r\n        u.name = name;\r\n        u.age = age;\r\n        u.dateOfBirth = dateOfBirth;\r\n        u.numOfVaccine = 0;\r\n    }\r\n\r\n    function addVaccine(\r\n        string memory nameVaccine,\r\n        string memory date,\r\n        string memory vaccinationFacility\r\n    ) external {\r\n        address userAddress = msg.sender;\r\n        if (checkUsers[userAddress]) {\r\n            User storage u = users[userAddress];\r\n            u.vaccines[u.numOfVaccine] = Vaccine(\r\n                nameVaccine,\r\n                date,\r\n                vaccinationFacility\r\n            );\r\n            u.numOfVaccine++;\r\n        }\r\n    }\r\n\r\n    function readVaccine() external view returns (Vaccine[] memory) {\r\n        address userAddress = msg.sender;\r\n        if (checkUsers[userAddress]) {\r\n            User storage u = users[userAddress];\r\n            Vaccine[] memory _list = new Vaccine[](u.numOfVaccine);\r\n            for (uint256 i = 0; i < u.numOfVaccine; i++) {\r\n                _list[i] = u.vaccines[i];\r\n            }\r\n            return _list;\r\n        }\r\n        return new Vaccine[](1);\r\n    }\r\n\r\n    function getUser(address add)\r\n        external\r\n        view\r\n        returns (\r\n            string memory,\r\n            string memory,\r\n            string memory\r\n        )\r\n    {\r\n        if (checkUsers[add]) {\r\n            User storage u = users[add];\r\n            return (u.name, u.age, u.dateOfBirth);\r\n        }\r\n        return (\"null\", \"null\", \"null\");\r\n    }\r\n}\r\n",
  "sourcePath": "D:\\Website\\vcapp\\contracts\\VC.sol",
  "compiler": {
    "name": "solc",
    "version": "0.8.11+commit.d7f03943.Emscripten.clang"
  },
  "schemaVersion": "3.4.5",
  "updatedAt": "2022-03-07T14:17:08.902Z",
  "networkType": "ethereum",
  "devdoc": {
    "kind": "dev",
    "methods": {},
    "version": 1
  },
  "userdoc": {
    "kind": "user",
    "methods": {},
    "version": 1
  }
}